{
  "contractName": "missingDiary",
  "abi": [
    {
      "inputs": [],
      "stateMutability": "nonpayable",
      "type": "constructor"
    },
    {
      "anonymous": false,
      "inputs": [
        {
          "indexed": true,
          "internalType": "address",
          "name": "user",
          "type": "address"
        },
        {
          "indexed": true,
          "internalType": "bytes32",
          "name": "personId",
          "type": "bytes32"
        },
        {
          "indexed": false,
          "internalType": "string",
          "name": "name",
          "type": "string"
        },
        {
          "indexed": false,
          "internalType": "enum missingDiary.Divison",
          "name": "division",
          "type": "uint8"
        }
      ],
      "name": "MissingPersonAdded",
      "type": "event"
    },
    {
      "anonymous": false,
      "inputs": [
        {
          "indexed": true,
          "internalType": "address",
          "name": "admin",
          "type": "address"
        },
        {
          "indexed": true,
          "internalType": "uint256",
          "name": "personId",
          "type": "uint256"
        },
        {
          "indexed": false,
          "internalType": "enum missingDiary.Status",
          "name": "status",
          "type": "uint8"
        }
      ],
      "name": "StatusUpdated",
      "type": "event"
    },
    {
      "inputs": [
        {
          "internalType": "enum missingDiary.Divison",
          "name": "",
          "type": "uint8"
        }
      ],
      "name": "missingCountByDivision",
      "outputs": [
        {
          "internalType": "uint256",
          "name": "",
          "type": "uint256"
        }
      ],
      "stateMutability": "view",
      "type": "function",
      "constant": true
    },
    {
      "inputs": [],
      "name": "missingPersonListCounter",
      "outputs": [
        {
          "internalType": "uint256",
          "name": "",
          "type": "uint256"
        }
      ],
      "stateMutability": "view",
      "type": "function",
      "constant": true
    },
    {
      "inputs": [
        {
          "internalType": "uint256",
          "name": "",
          "type": "uint256"
        }
      ],
      "name": "missingPersons",
      "outputs": [
        {
          "internalType": "string",
          "name": "name",
          "type": "string"
        },
        {
          "internalType": "uint256",
          "name": "age",
          "type": "uint256"
        },
        {
          "internalType": "uint256",
          "name": "height",
          "type": "uint256"
        },
        {
          "internalType": "enum missingDiary.Status",
          "name": "status",
          "type": "uint8"
        },
        {
          "internalType": "string",
          "name": "description",
          "type": "string"
        },
        {
          "internalType": "enum missingDiary.Divison",
          "name": "division",
          "type": "uint8"
        },
        {
          "internalType": "string",
          "name": "contactNumber",
          "type": "string"
        },
        {
          "internalType": "bytes32",
          "name": "personIdHash",
          "type": "bytes32"
        }
      ],
      "stateMutability": "view",
      "type": "function",
      "constant": true
    },
    {
      "inputs": [
        {
          "internalType": "bytes32",
          "name": "",
          "type": "bytes32"
        }
      ],
      "name": "personIdByHash",
      "outputs": [
        {
          "internalType": "uint256",
          "name": "",
          "type": "uint256"
        }
      ],
      "stateMutability": "view",
      "type": "function",
      "constant": true
    },
    {
      "inputs": [
        {
          "internalType": "string",
          "name": "_name",
          "type": "string"
        },
        {
          "internalType": "uint256",
          "name": "_age",
          "type": "uint256"
        },
        {
          "internalType": "uint256",
          "name": "_height",
          "type": "uint256"
        },
        {
          "internalType": "string",
          "name": "_description",
          "type": "string"
        },
        {
          "internalType": "enum missingDiary.Divison",
          "name": "_division",
          "type": "uint8"
        },
        {
          "internalType": "string",
          "name": "_contactNumber",
          "type": "string"
        }
      ],
      "name": "addMissingPerson",
      "outputs": [],
      "stateMutability": "nonpayable",
      "type": "function"
    },
    {
      "inputs": [
        {
          "internalType": "uint256",
          "name": "_personId",
          "type": "uint256"
        }
      ],
      "name": "toggleStatus",
      "outputs": [],
      "stateMutability": "nonpayable",
      "type": "function"
    }
  ],
  "bytecode": "0x60a060405234801561001057600080fd5b503373ffffffffffffffffffffffffffffffffffffffff1660808173ffffffffffffffffffffffffffffffffffffffff16815250506080516114cf6100676000396000818161042d015261064901526114cf6000f3fe608060405234801561001057600080fd5b50600436106100625760003560e01c80630f2ab9b014610067578063146a18e7146100975780631d35142c146100b35780634f438bb1146100e357806351db2e7614610101578063f5a38aaf1461011d575b600080fd5b610081600480360381019061007c91906108fd565b610154565b60405161008e9190610943565b60405180910390f35b6100b160048036038101906100ac9190610af5565b61016c565b005b6100cd60048036038101906100c89190610bd6565b61040d565b6040516100da9190610943565b60405180910390f35b6100eb610425565b6040516100f89190610943565b60405180910390f35b61011b60048036038101906101169190610c03565b61042b565b005b61013760048036038101906101329190610c03565b6106b9565b60405161014b989796959493929190610d7d565b60405180910390f35b60016020528060005260406000206000915090505481565b60008683878785604051602001610187959493929190610ea3565b604051602081830303815290604052805190602001209050600360008154809291906101b290610f29565b91905055506003546004819055506000600160008381526020019081526020016000205414610216576040517f08c379a000000000000000000000000000000000000000000000000000000000815260040161020d90610fbd565b60405180910390fd5b6040518061010001604052808881526020018781526020018681526020016000600181111561024857610247610caf565b5b815260200185815260200184600781111561026657610265610caf565b5b8152602001838152602001828152506000806003548152602001908152602001600020600082015181600001908161029e91906111e9565b50602082015181600101556040820151816002015560608201518160030160006101000a81548160ff021916908360018111156102de576102dd610caf565b5b021790555060808201518160040190816102f891906111e9565b5060a08201518160050160006101000a81548160ff0219169083600781111561032457610323610caf565b5b021790555060c082015181600601908161033e91906111e9565b5060e082015181600701559050506002600084600781111561036357610362610caf565b5b600781111561037557610374610caf565b5b8152602001908152602001600020600081548092919061039490610f29565b91905055506003546001600083815260200190815260200160002081905550803373ffffffffffffffffffffffffffffffffffffffff167f7555285bc9eee001ef8c795a3fda979b97c2ad4ab46dd8af7e5892a1a546c94789866040516103fc9291906112bb565b60405180910390a350505050505050565b60026020528060005260406000206000915090505481565b60045481565b7f000000000000000000000000000000000000000000000000000000000000000073ffffffffffffffffffffffffffffffffffffffff163373ffffffffffffffffffffffffffffffffffffffff16146104b9576040517f08c379a00000000000000000000000000000000000000000000000000000000081526004016104b090611337565b60405180910390fd5b60008060008381526020019081526020016000206001015403610511576040517f08c379a0000000000000000000000000000000000000000000000000000000008152600401610508906113c9565b60405180910390fd5b60018081111561052457610523610caf565b5b60008083815260200190815260200160002060030160009054906101000a900460ff16600181111561055957610558610caf565b5b03610599576040517f08c379a000000000000000000000000000000000000000000000000000000000815260040161059090611435565b60405180910390fd5b600160008083815260200190815260200160002060030160006101000a81548160ff021916908360018111156105d2576105d1610caf565b5b02179055506002600080600084815260200190815260200160002060050160009054906101000a900460ff1660078111156106105761060f610caf565b5b600781111561062257610621610caf565b5b8152602001908152602001600020600081548092919061064190611455565b9190505550807f000000000000000000000000000000000000000000000000000000000000000073ffffffffffffffffffffffffffffffffffffffff167f9397094d47a9f48c19b48e9978818c813c62fe095901e645279f5a5547d5561960016040516106ae919061147e565b60405180910390a350565b60006020528060005260406000206000915090508060000180546106dc9061100c565b80601f01602080910402602001604051908101604052809291908181526020018280546107089061100c565b80156107555780601f1061072a57610100808354040283529160200191610755565b820191906000526020600020905b81548152906001019060200180831161073857829003601f168201915b5050505050908060010154908060020154908060030160009054906101000a900460ff16908060040180546107899061100c565b80601f01602080910402602001604051908101604052809291908181526020018280546107b59061100c565b80156108025780601f106107d757610100808354040283529160200191610802565b820191906000526020600020905b8154815290600101906020018083116107e557829003601f168201915b5050505050908060050160009054906101000a900460ff169080600601805461082a9061100c565b80601f01602080910402602001604051908101604052809291908181526020018280546108569061100c565b80156108a35780601f10610878576101008083540402835291602001916108a3565b820191906000526020600020905b81548152906001019060200180831161088657829003601f168201915b5050505050908060070154905088565b6000604051905090565b600080fd5b600080fd5b6000819050919050565b6108da816108c7565b81146108e557600080fd5b50565b6000813590506108f7816108d1565b92915050565b600060208284031215610913576109126108bd565b5b6000610921848285016108e8565b91505092915050565b6000819050919050565b61093d8161092a565b82525050565b60006020820190506109586000830184610934565b92915050565b600080fd5b600080fd5b6000601f19601f8301169050919050565b7f4e487b7100000000000000000000000000000000000000000000000000000000600052604160045260246000fd5b6109b182610968565b810181811067ffffffffffffffff821117156109d0576109cf610979565b5b80604052505050565b60006109e36108b3565b90506109ef82826109a8565b919050565b600067ffffffffffffffff821115610a0f57610a0e610979565b5b610a1882610968565b9050602081019050919050565b82818337600083830152505050565b6000610a47610a42846109f4565b6109d9565b905082815260208101848484011115610a6357610a62610963565b5b610a6e848285610a25565b509392505050565b600082601f830112610a8b57610a8a61095e565b5b8135610a9b848260208601610a34565b91505092915050565b610aad8161092a565b8114610ab857600080fd5b50565b600081359050610aca81610aa4565b92915050565b60088110610add57600080fd5b50565b600081359050610aef81610ad0565b92915050565b60008060008060008060c08789031215610b1257610b116108bd565b5b600087013567ffffffffffffffff811115610b3057610b2f6108c2565b5b610b3c89828a01610a76565b9650506020610b4d89828a01610abb565b9550506040610b5e89828a01610abb565b945050606087013567ffffffffffffffff811115610b7f57610b7e6108c2565b5b610b8b89828a01610a76565b9350506080610b9c89828a01610ae0565b92505060a087013567ffffffffffffffff811115610bbd57610bbc6108c2565b5b610bc989828a01610a76565b9150509295509295509295565b600060208284031215610bec57610beb6108bd565b5b6000610bfa84828501610ae0565b91505092915050565b600060208284031215610c1957610c186108bd565b5b6000610c2784828501610abb565b91505092915050565b600081519050919050565b600082825260208201905092915050565b60005b83811015610c6a578082015181840152602081019050610c4f565b60008484015250505050565b6000610c8182610c30565b610c8b8185610c3b565b9350610c9b818560208601610c4c565b610ca481610968565b840191505092915050565b7f4e487b7100000000000000000000000000000000000000000000000000000000600052602160045260246000fd5b60028110610cef57610cee610caf565b5b50565b6000819050610d0082610cde565b919050565b6000610d1082610cf2565b9050919050565b610d2081610d05565b82525050565b60088110610d3757610d36610caf565b5b50565b6000819050610d4882610d26565b919050565b6000610d5882610d3a565b9050919050565b610d6881610d4d565b82525050565b610d77816108c7565b82525050565b6000610100820190508181036000830152610d98818b610c76565b9050610da7602083018a610934565b610db46040830189610934565b610dc16060830188610d17565b8181036080830152610dd38187610c76565b9050610de260a0830186610d5f565b81810360c0830152610df48185610c76565b9050610e0360e0830184610d6e565b9998505050505050505050565b600081905092915050565b6000610e2682610c30565b610e308185610e10565b9350610e40818560208601610c4c565b80840191505092915050565b60008160f81b9050919050565b6000610e6482610e4c565b9050919050565b610e7c610e7782610d4d565b610e59565b82525050565b6000819050919050565b610e9d610e988261092a565b610e82565b82525050565b6000610eaf8288610e1b565b9150610ebb8287610e6b565b600182019150610ecb8286610e8c565b602082019150610edb8285610e8c565b602082019150610eeb8284610e1b565b91508190509695505050505050565b7f4e487b7100000000000000000000000000000000000000000000000000000000600052601160045260246000fd5b6000610f348261092a565b91507fffffffffffffffffffffffffffffffffffffffffffffffffffffffffffffffff8203610f6657610f65610efa565b5b600182019050919050565b7f506572736f6e20616c7265616479206164646564000000000000000000000000600082015250565b6000610fa7601483610c3b565b9150610fb282610f71565b602082019050919050565b60006020820190508181036000830152610fd681610f9a565b9050919050565b7f4e487b7100000000000000000000000000000000000000000000000000000000600052602260045260246000fd5b6000600282049050600182168061102457607f821691505b60208210810361103757611036610fdd565b5b50919050565b60008190508160005260206000209050919050565b60006020601f8301049050919050565b600082821b905092915050565b60006008830261109f7fffffffffffffffffffffffffffffffffffffffffffffffffffffffffffffffff82611062565b6110a98683611062565b95508019841693508086168417925050509392505050565b6000819050919050565b60006110e66110e16110dc8461092a565b6110c1565b61092a565b9050919050565b6000819050919050565b611100836110cb565b61111461110c826110ed565b84845461106f565b825550505050565b600090565b61112961111c565b6111348184846110f7565b505050565b5b818110156111585761114d600082611121565b60018101905061113a565b5050565b601f82111561119d5761116e8161103d565b61117784611052565b81016020851015611186578190505b61119a61119285611052565b830182611139565b50505b505050565b600082821c905092915050565b60006111c0600019846008026111a2565b1980831691505092915050565b60006111d983836111af565b9150826002028217905092915050565b6111f282610c30565b67ffffffffffffffff81111561120b5761120a610979565b5b611215825461100c565b61122082828561115c565b600060209050601f8311600181146112535760008415611241578287015190505b61124b85826111cd565b8655506112b3565b601f1984166112618661103d565b60005b8281101561128957848901518255600182019150602085019450602081019050611264565b868310156112a657848901516112a2601f8916826111af565b8355505b6001600288020188555050505b505050505050565b600060408201905081810360008301526112d58185610c76565b90506112e46020830184610d5f565b9392505050565b7f43616c6c6572206973206e6f7420616e2061646d696e00000000000000000000600082015250565b6000611321601683610c3b565b915061132c826112eb565b602082019050919050565b6000602082019050818103600083015261135081611314565b9050919050565b7f4e6f206163636f756e742065786973747320696e20746865206d697373696e6760008201527f206c697374206461746162617365000000000000000000000000000000000000602082015250565b60006113b3602e83610c3b565b91506113be82611357565b604082019050919050565b600060208201905081810360008301526113e2816113a6565b9050919050565b7f506572736f6e20697320616c726561647920666f756e64210000000000000000600082015250565b600061141f601883610c3b565b915061142a826113e9565b602082019050919050565b6000602082019050818103600083015261144e81611412565b9050919050565b60006114608261092a565b91506000820361147357611472610efa565b5b600182039050919050565b60006020820190506114936000830184610d17565b9291505056fea2646970667358221220872dd3bac9820ce6cab0eadd111695e10c6b3a9120ff99b0e140f2efc523ea3164736f6c63430008100033",
  "immutableReferences": {
    "3": [
      {
        "length": 32,
        "start": 1069
      },
      {
        "length": 32,
        "start": 1609
      }
    ]
  },
  "source": "// SPDX-License-Identifier: GPL-3.0\npragma solidity >=0.8.2 <0.9.0;\n\ncontract missingDiary{\n    \n    // stores the address of the admin\n    address private immutable admin;\n\n    // An enumeration representing the status of a missing person, either \"Missing\" or \"Found.\"\n    enum Status { Missing, Found }\n\n    // An enumeration representing 8 possible values of divisons\n    enum Divison { Barishal, Chittagong, Dhaka, Khulna, Rajshahi, Rangpur, Mymensingh, Sylhet }\n\n    // model the missing person form\n    struct MissingPerson{\n        string name;\n        uint age;\n        uint height;\n        Status status;\n        string description;\n        Divison division;\n        string contactNumber;\n        bytes32 personIdHash;\n    }\n\n    // stores list of missing people\n    mapping (uint => MissingPerson) public missingPersons;\n\n    mapping(bytes32 => uint) public personIdByHash; // Mapping to store personId as key with value of the index\n\n    // keeps count of missing people from each division\n    mapping(Divison => uint) public missingCountByDivision;\n\n    uint private lastPersonId; // Counter for assigning incremental personId\n\n    uint public missingPersonListCounter; // tracks the size of the mapping\n\n    // This event is emitted when a new missing person is added to the system\n    event MissingPersonAdded(address indexed user, bytes32 indexed personId, string name, Divison division);\n\n    //  This event is emitted when the status of a missing person is updated\n    event StatusUpdated(address indexed admin, uint indexed personId, Status status);\n\n    // A modifier to restrict certain functions to admin users\n    modifier onlyAdmin() {\n        require(msg.sender == admin, \"Caller is not an admin\");\n        _;  // this is called a placeholder\n    }\n\n    // Sets the deploying address as the admin\n    constructor() {\n        admin = msg.sender;\n    }\n\n    // function to add the missing person in the list\n    function addMissingPerson (\n        string memory _name, \n        uint _age,\n        uint _height,\n        string memory _description,\n        Divison _division,\n        string memory _contactNumber\n    ) external {\n        // hash to get unique id for each missing person\n        bytes32 _personIdHash = keccak256(abi.encodePacked(_name, _division, _age, _height, _contactNumber));\n\n        // Increment lastPersonId and missingPersonListCOunter\n        lastPersonId++;\n        missingPersonListCounter = lastPersonId;\n\n        // Ensure personIdHash is unique\n        require(personIdByHash[_personIdHash] == 0, \"Person already added\");\n        \n        missingPersons[lastPersonId] = MissingPerson({\n            name: _name,\n            age: _age,\n            height: _height,\n            status: Status.Missing,\n            description: _description,\n            division: _division,\n            contactNumber: _contactNumber,\n            personIdHash : _personIdHash\n        });\n        \n        missingCountByDivision[_division]++; // increment missing person in the division\n        personIdByHash[_personIdHash] = lastPersonId;\n        // emit the event of missing person being added\n        emit MissingPersonAdded(msg.sender, _personIdHash, _name, _division);\n    }\n\n    // function to toggle missing to found ONLY by Admin\n    function toggleStatus ( uint _personId ) external onlyAdmin {\n        require(missingPersons[_personId].age != 0, \"No account exists in the missing list database\");\n        require(missingPersons[_personId].status != Status.Found, \"Person is already found!\");\n\n        // toggle status\n        missingPersons[_personId].status = Status.Found;\n        // decrement missing count number of the specific division\n        missingCountByDivision[missingPersons[_personId].division]--;\n\n        // emit when status is updated\n        emit StatusUpdated(admin, _personId, Status.Found);\n    }\n}\n\n\n",
  "sourcePath": "/home/ariful/Downloads/missingApp/contracts/missingDiary.sol",
  "compiler": {
    "name": "solc",
    "version": "0.8.16+commit.07a7930e.Emscripten.clang"
  },
  "schemaVersion": "3.4.16",
  "updatedAt": "2023-11-29T10:46:42.812Z",
  "networkType": "ethereum",
  "devdoc": {
    "kind": "dev",
    "methods": {},
    "version": 1
  },
  "userdoc": {
    "kind": "user",
    "methods": {},
    "version": 1
  }
}