{
  "contractName": "missingDiary",
  "abi": [
    {
      "inputs": [],
      "stateMutability": "nonpayable",
      "type": "constructor"
    },
    {
      "anonymous": false,
      "inputs": [
        {
          "indexed": true,
          "internalType": "address",
          "name": "user",
          "type": "address"
        },
        {
          "indexed": true,
          "internalType": "bytes32",
          "name": "personId",
          "type": "bytes32"
        },
        {
          "indexed": false,
          "internalType": "string",
          "name": "name",
          "type": "string"
        },
        {
          "indexed": false,
          "internalType": "enum missingDiary.Divison",
          "name": "division",
          "type": "uint8"
        }
      ],
      "name": "missingPersonAddedEvent",
      "type": "event"
    },
    {
      "anonymous": false,
      "inputs": [
        {
          "indexed": true,
          "internalType": "address",
          "name": "admin",
          "type": "address"
        },
        {
          "indexed": true,
          "internalType": "uint256",
          "name": "personId",
          "type": "uint256"
        },
        {
          "indexed": false,
          "internalType": "enum missingDiary.Status",
          "name": "status",
          "type": "uint8"
        }
      ],
      "name": "statusUpdatedEvent",
      "type": "event"
    },
    {
      "inputs": [],
      "name": "admin",
      "outputs": [
        {
          "internalType": "address",
          "name": "",
          "type": "address"
        }
      ],
      "stateMutability": "view",
      "type": "function",
      "constant": true
    },
    {
      "inputs": [
        {
          "internalType": "enum missingDiary.Divison",
          "name": "",
          "type": "uint8"
        }
      ],
      "name": "missingCountByDivision",
      "outputs": [
        {
          "internalType": "uint256",
          "name": "",
          "type": "uint256"
        }
      ],
      "stateMutability": "view",
      "type": "function",
      "constant": true
    },
    {
      "inputs": [],
      "name": "missingPersonListCounter",
      "outputs": [
        {
          "internalType": "uint256",
          "name": "",
          "type": "uint256"
        }
      ],
      "stateMutability": "view",
      "type": "function",
      "constant": true
    },
    {
      "inputs": [
        {
          "internalType": "uint256",
          "name": "",
          "type": "uint256"
        }
      ],
      "name": "missingPersons",
      "outputs": [
        {
          "internalType": "string",
          "name": "name",
          "type": "string"
        },
        {
          "internalType": "uint256",
          "name": "age",
          "type": "uint256"
        },
        {
          "internalType": "uint256",
          "name": "height",
          "type": "uint256"
        },
        {
          "internalType": "enum missingDiary.Status",
          "name": "status",
          "type": "uint8"
        },
        {
          "internalType": "string",
          "name": "description",
          "type": "string"
        },
        {
          "internalType": "enum missingDiary.Divison",
          "name": "division",
          "type": "uint8"
        },
        {
          "internalType": "string",
          "name": "contactNumber",
          "type": "string"
        },
        {
          "internalType": "bytes32",
          "name": "personIdHash",
          "type": "bytes32"
        }
      ],
      "stateMutability": "view",
      "type": "function",
      "constant": true
    },
    {
      "inputs": [
        {
          "internalType": "bytes32",
          "name": "",
          "type": "bytes32"
        }
      ],
      "name": "personIdByHash",
      "outputs": [
        {
          "internalType": "uint256",
          "name": "",
          "type": "uint256"
        }
      ],
      "stateMutability": "view",
      "type": "function",
      "constant": true
    },
    {
      "inputs": [
        {
          "internalType": "string",
          "name": "_name",
          "type": "string"
        },
        {
          "internalType": "uint256",
          "name": "_age",
          "type": "uint256"
        },
        {
          "internalType": "uint256",
          "name": "_height",
          "type": "uint256"
        },
        {
          "internalType": "string",
          "name": "_description",
          "type": "string"
        },
        {
          "internalType": "enum missingDiary.Divison",
          "name": "_division",
          "type": "uint8"
        },
        {
          "internalType": "string",
          "name": "_contactNumber",
          "type": "string"
        }
      ],
      "name": "addMissingPerson",
      "outputs": [],
      "stateMutability": "nonpayable",
      "type": "function"
    },
    {
      "inputs": [
        {
          "internalType": "uint256",
          "name": "_personId",
          "type": "uint256"
        }
      ],
      "name": "toggleStatus",
      "outputs": [],
      "stateMutability": "nonpayable",
      "type": "function"
    },
    {
      "inputs": [],
      "name": "isAdmin",
      "outputs": [
        {
          "internalType": "bool",
          "name": "",
          "type": "bool"
        }
      ],
      "stateMutability": "view",
      "type": "function",
      "constant": true
    }
  ],
  "bytecode": "0x60a060405234801561001057600080fd5b503373ffffffffffffffffffffffffffffffffffffffff1660808173ffffffffffffffffffffffffffffffffffffffff168152505060805161163d6100756000396000818161048f015281816106ab0152818161071f015261096d015261163d6000f3fe608060405234801561001057600080fd5b50600436106100885760003560e01c806351db2e761161005b57806351db2e7614610127578063b6db75a014610143578063f5a38aaf14610161578063f851a4401461019857610088565b80630f2ab9b01461008d578063146a18e7146100bd5780631d35142c146100d95780634f438bb114610109575b600080fd5b6100a760048036038101906100a291906109d9565b6101b6565b6040516100b49190610a1f565b60405180910390f35b6100d760048036038101906100d29190610bd1565b6101ce565b005b6100f360048036038101906100ee9190610cb2565b61046f565b6040516101009190610a1f565b60405180910390f35b610111610487565b60405161011e9190610a1f565b60405180910390f35b610141600480360381019061013c9190610cdf565b61048d565b005b61014b61071b565b6040516101589190610d27565b60405180910390f35b61017b60048036038101906101769190610cdf565b610771565b60405161018f989796959493929190610e8f565b60405180910390f35b6101a061096b565b6040516101ad9190610f63565b60405180910390f35b60016020528060005260406000206000915090505481565b600086838787856040516020016101e9959493929190611011565b6040516020818303038152906040528051906020012090506003600081548092919061021490611097565b91905055506003546004819055506000600160008381526020019081526020016000205414610278576040517f08c379a000000000000000000000000000000000000000000000000000000000815260040161026f9061112b565b60405180910390fd5b604051806101000160405280888152602001878152602001868152602001600060018111156102aa576102a9610dc1565b5b81526020018581526020018460078111156102c8576102c7610dc1565b5b815260200183815260200182815250600080600354815260200190815260200160002060008201518160000190816103009190611357565b50602082015181600101556040820151816002015560608201518160030160006101000a81548160ff021916908360018111156103405761033f610dc1565b5b0217905550608082015181600401908161035a9190611357565b5060a08201518160050160006101000a81548160ff0219169083600781111561038657610385610dc1565b5b021790555060c08201518160060190816103a09190611357565b5060e08201518160070155905050600260008460078111156103c5576103c4610dc1565b5b60078111156103d7576103d6610dc1565b5b815260200190815260200160002060008154809291906103f690611097565b91905055506003546001600083815260200190815260200160002081905550803373ffffffffffffffffffffffffffffffffffffffff167f497cf92e4c93fa0cfbd6b93db678ddca24a544cd33dede2101f3ff0bd2d57904898660405161045e929190611429565b60405180910390a350505050505050565b60026020528060005260406000206000915090505481565b60045481565b7f000000000000000000000000000000000000000000000000000000000000000073ffffffffffffffffffffffffffffffffffffffff163373ffffffffffffffffffffffffffffffffffffffff161461051b576040517f08c379a0000000000000000000000000000000000000000000000000000000008152600401610512906114a5565b60405180910390fd5b60008060008381526020019081526020016000206001015403610573576040517f08c379a000000000000000000000000000000000000000000000000000000000815260040161056a90611537565b60405180910390fd5b60018081111561058657610585610dc1565b5b60008083815260200190815260200160002060030160009054906101000a900460ff1660018111156105bb576105ba610dc1565b5b036105fb576040517f08c379a00000000000000000000000000000000000000000000000000000000081526004016105f2906115a3565b60405180910390fd5b600160008083815260200190815260200160002060030160006101000a81548160ff0219169083600181111561063457610633610dc1565b5b02179055506002600080600084815260200190815260200160002060050160009054906101000a900460ff16600781111561067257610671610dc1565b5b600781111561068457610683610dc1565b5b815260200190815260200160002060008154809291906106a3906115c3565b9190505550807f000000000000000000000000000000000000000000000000000000000000000073ffffffffffffffffffffffffffffffffffffffff167ffca166c8dcfbbb785208244314b637ff90188a8a2b13b4dc12f4aa437c10212e600160405161071091906115ec565b60405180910390a350565b60007f000000000000000000000000000000000000000000000000000000000000000073ffffffffffffffffffffffffffffffffffffffff163373ffffffffffffffffffffffffffffffffffffffff1614905090565b60006020528060005260406000206000915090508060000180546107949061117a565b80601f01602080910402602001604051908101604052809291908181526020018280546107c09061117a565b801561080d5780601f106107e25761010080835404028352916020019161080d565b820191906000526020600020905b8154815290600101906020018083116107f057829003601f168201915b5050505050908060010154908060020154908060030160009054906101000a900460ff16908060040180546108419061117a565b80601f016020809104026020016040519081016040528092919081815260200182805461086d9061117a565b80156108ba5780601f1061088f576101008083540402835291602001916108ba565b820191906000526020600020905b81548152906001019060200180831161089d57829003601f168201915b5050505050908060050160009054906101000a900460ff16908060060180546108e29061117a565b80601f016020809104026020016040519081016040528092919081815260200182805461090e9061117a565b801561095b5780601f106109305761010080835404028352916020019161095b565b820191906000526020600020905b81548152906001019060200180831161093e57829003601f168201915b5050505050908060070154905088565b7f000000000000000000000000000000000000000000000000000000000000000081565b6000604051905090565b600080fd5b600080fd5b6000819050919050565b6109b6816109a3565b81146109c157600080fd5b50565b6000813590506109d3816109ad565b92915050565b6000602082840312156109ef576109ee610999565b5b60006109fd848285016109c4565b91505092915050565b6000819050919050565b610a1981610a06565b82525050565b6000602082019050610a346000830184610a10565b92915050565b600080fd5b600080fd5b6000601f19601f8301169050919050565b7f4e487b7100000000000000000000000000000000000000000000000000000000600052604160045260246000fd5b610a8d82610a44565b810181811067ffffffffffffffff82111715610aac57610aab610a55565b5b80604052505050565b6000610abf61098f565b9050610acb8282610a84565b919050565b600067ffffffffffffffff821115610aeb57610aea610a55565b5b610af482610a44565b9050602081019050919050565b82818337600083830152505050565b6000610b23610b1e84610ad0565b610ab5565b905082815260208101848484011115610b3f57610b3e610a3f565b5b610b4a848285610b01565b509392505050565b600082601f830112610b6757610b66610a3a565b5b8135610b77848260208601610b10565b91505092915050565b610b8981610a06565b8114610b9457600080fd5b50565b600081359050610ba681610b80565b92915050565b60088110610bb957600080fd5b50565b600081359050610bcb81610bac565b92915050565b60008060008060008060c08789031215610bee57610bed610999565b5b600087013567ffffffffffffffff811115610c0c57610c0b61099e565b5b610c1889828a01610b52565b9650506020610c2989828a01610b97565b9550506040610c3a89828a01610b97565b945050606087013567ffffffffffffffff811115610c5b57610c5a61099e565b5b610c6789828a01610b52565b9350506080610c7889828a01610bbc565b92505060a087013567ffffffffffffffff811115610c9957610c9861099e565b5b610ca589828a01610b52565b9150509295509295509295565b600060208284031215610cc857610cc7610999565b5b6000610cd684828501610bbc565b91505092915050565b600060208284031215610cf557610cf4610999565b5b6000610d0384828501610b97565b91505092915050565b60008115159050919050565b610d2181610d0c565b82525050565b6000602082019050610d3c6000830184610d18565b92915050565b600081519050919050565b600082825260208201905092915050565b60005b83811015610d7c578082015181840152602081019050610d61565b60008484015250505050565b6000610d9382610d42565b610d9d8185610d4d565b9350610dad818560208601610d5e565b610db681610a44565b840191505092915050565b7f4e487b7100000000000000000000000000000000000000000000000000000000600052602160045260246000fd5b60028110610e0157610e00610dc1565b5b50565b6000819050610e1282610df0565b919050565b6000610e2282610e04565b9050919050565b610e3281610e17565b82525050565b60088110610e4957610e48610dc1565b5b50565b6000819050610e5a82610e38565b919050565b6000610e6a82610e4c565b9050919050565b610e7a81610e5f565b82525050565b610e89816109a3565b82525050565b6000610100820190508181036000830152610eaa818b610d88565b9050610eb9602083018a610a10565b610ec66040830189610a10565b610ed36060830188610e29565b8181036080830152610ee58187610d88565b9050610ef460a0830186610e71565b81810360c0830152610f068185610d88565b9050610f1560e0830184610e80565b9998505050505050505050565b600073ffffffffffffffffffffffffffffffffffffffff82169050919050565b6000610f4d82610f22565b9050919050565b610f5d81610f42565b82525050565b6000602082019050610f786000830184610f54565b92915050565b600081905092915050565b6000610f9482610d42565b610f9e8185610f7e565b9350610fae818560208601610d5e565b80840191505092915050565b60008160f81b9050919050565b6000610fd282610fba565b9050919050565b610fea610fe582610e5f565b610fc7565b82525050565b6000819050919050565b61100b61100682610a06565b610ff0565b82525050565b600061101d8288610f89565b91506110298287610fd9565b6001820191506110398286610ffa565b6020820191506110498285610ffa565b6020820191506110598284610f89565b91508190509695505050505050565b7f4e487b7100000000000000000000000000000000000000000000000000000000600052601160045260246000fd5b60006110a282610a06565b91507fffffffffffffffffffffffffffffffffffffffffffffffffffffffffffffffff82036110d4576110d3611068565b5b600182019050919050565b7f506572736f6e20616c7265616479206164646564000000000000000000000000600082015250565b6000611115601483610d4d565b9150611120826110df565b602082019050919050565b6000602082019050818103600083015261114481611108565b9050919050565b7f4e487b7100000000000000000000000000000000000000000000000000000000600052602260045260246000fd5b6000600282049050600182168061119257607f821691505b6020821081036111a5576111a461114b565b5b50919050565b60008190508160005260206000209050919050565b60006020601f8301049050919050565b600082821b905092915050565b60006008830261120d7fffffffffffffffffffffffffffffffffffffffffffffffffffffffffffffffff826111d0565b61121786836111d0565b95508019841693508086168417925050509392505050565b6000819050919050565b600061125461124f61124a84610a06565b61122f565b610a06565b9050919050565b6000819050919050565b61126e83611239565b61128261127a8261125b565b8484546111dd565b825550505050565b600090565b61129761128a565b6112a2818484611265565b505050565b5b818110156112c6576112bb60008261128f565b6001810190506112a8565b5050565b601f82111561130b576112dc816111ab565b6112e5846111c0565b810160208510156112f4578190505b611308611300856111c0565b8301826112a7565b50505b505050565b600082821c905092915050565b600061132e60001984600802611310565b1980831691505092915050565b6000611347838361131d565b9150826002028217905092915050565b61136082610d42565b67ffffffffffffffff81111561137957611378610a55565b5b611383825461117a565b61138e8282856112ca565b600060209050601f8311600181146113c157600084156113af578287015190505b6113b9858261133b565b865550611421565b601f1984166113cf866111ab565b60005b828110156113f7578489015182556001820191506020850194506020810190506113d2565b868310156114145784890151611410601f89168261131d565b8355505b6001600288020188555050505b505050505050565b600060408201905081810360008301526114438185610d88565b90506114526020830184610e71565b9392505050565b7f43616c6c6572206973206e6f7420616e2061646d696e00000000000000000000600082015250565b600061148f601683610d4d565b915061149a82611459565b602082019050919050565b600060208201905081810360008301526114be81611482565b9050919050565b7f4e6f206163636f756e742065786973747320696e20746865206d697373696e6760008201527f206c697374206461746162617365000000000000000000000000000000000000602082015250565b6000611521602e83610d4d565b915061152c826114c5565b604082019050919050565b6000602082019050818103600083015261155081611514565b9050919050565b7f506572736f6e20697320616c726561647920666f756e64210000000000000000600082015250565b600061158d601883610d4d565b915061159882611557565b602082019050919050565b600060208201905081810360008301526115bc81611580565b9050919050565b60006115ce82610a06565b9150600082036115e1576115e0611068565b5b600182039050919050565b60006020820190506116016000830184610e29565b9291505056fea2646970667358221220405956b689c0536b22d6cfe0c5b064ac2d91de2b24fde410ea461c43f1a94fcc64736f6c63430008100033",
  "immutableReferences": {
    "3": [
      {
        "length": 32,
        "start": 1167
      },
      {
        "length": 32,
        "start": 1707
      },
      {
        "length": 32,
        "start": 1823
      },
      {
        "length": 32,
        "start": 2413
      }
    ]
  },
  "source": "// SPDX-License-Identifier: GPL-3.0\npragma solidity >=0.8.2 <0.9.0;\n\ncontract missingDiary{\n    \n    // stores the address of the admin\n    address public immutable admin;\n\n    // An enumeration representing the status of a missing person, either \"Missing\" or \"Found.\"\n    enum Status { Missing, Found }\n\n    // An enumeration representing 8 possible values of divisons\n    enum Divison { Barishal, Chittagong, Dhaka, Khulna, Rajshahi, Rangpur, Mymensingh, Sylhet }\n\n    // model the missing person form\n    struct MissingPerson{\n        string name;\n        uint age;\n        uint height;\n        Status status;\n        string description;\n        Divison division;\n        string contactNumber;\n        bytes32 personIdHash;\n    }\n\n    // stores list of missing people\n    mapping (uint => MissingPerson) public missingPersons;\n\n    mapping(bytes32 => uint) public personIdByHash; // Mapping to store personId as key with value of the index\n\n    // keeps count of missing people from each division\n    mapping(Divison => uint) public missingCountByDivision;\n\n    uint private lastPersonId; // Counter for assigning incremental personId\n\n    uint public missingPersonListCounter; // tracks the size of the mapping\n\n    // This event is emitted when a new missing person is added to the system\n    event missingPersonAddedEvent(address indexed user, bytes32 indexed personId, string name, Divison division);\n\n    //  This event is emitted when the status of a missing person is updated\n    event statusUpdatedEvent(address indexed admin, uint indexed personId, Status status);\n\n    // A modifier to restrict certain functions to admin users\n    modifier onlyAdmin() {\n        require(msg.sender == admin, \"Caller is not an admin\");\n        _;  // this is called a placeholder\n    }\n\n    // Sets the deploying address as the admin\n    constructor() {\n        admin = msg.sender;\n    }\n\n    // function to add the missing person in the list\n    function addMissingPerson (\n        string memory _name, \n        uint _age,\n        uint _height,\n        string memory _description,\n        Divison _division,\n        string memory _contactNumber\n    ) external {\n        // hash to get unique id for each missing person\n        bytes32 _personIdHash = keccak256(abi.encodePacked(_name, _division, _age, _height, _contactNumber));\n\n        // Increment lastPersonId and missingPersonListCOunter\n        lastPersonId++;\n        missingPersonListCounter = lastPersonId;\n\n        // Ensure personIdHash is unique\n        require(personIdByHash[_personIdHash] == 0, \"Person already added\");\n        \n        missingPersons[lastPersonId] = MissingPerson({\n            name: _name,\n            age: _age,\n            height: _height,\n            status: Status.Missing,\n            description: _description,\n            division: _division,\n            contactNumber: _contactNumber,\n            personIdHash : _personIdHash\n        });\n        \n        missingCountByDivision[_division]++; // increment missing person in the division\n        personIdByHash[_personIdHash] = lastPersonId;\n        // emit the event of missing person being added\n        emit missingPersonAddedEvent(msg.sender, _personIdHash, _name, _division);\n    }\n\n    // function to toggle missing to found ONLY by Admin\n    function toggleStatus ( uint _personId ) external onlyAdmin {\n        require(missingPersons[_personId].age != 0, \"No account exists in the missing list database\");\n        require(missingPersons[_personId].status != Status.Found, \"Person is already found!\");\n\n        // toggle status\n        missingPersons[_personId].status = Status.Found;\n        // decrement missing count number of the specific division\n        missingCountByDivision[missingPersons[_personId].division]--;\n\n        // emit when status is updated\n        emit statusUpdatedEvent(admin, _personId, Status.Found);\n    }\n\n    // returns if the current user is admin or not\n    function isAdmin() external view returns (bool){\n        return msg.sender == admin;\n    }\n}\n\n\n",
  "sourcePath": "/home/ariful/Downloads/missingApp/contracts/missingDiary.sol",
  "compiler": {
    "name": "solc",
    "version": "0.8.16+commit.07a7930e.Emscripten.clang"
  },
  "schemaVersion": "3.4.16",
  "updatedAt": "2023-12-04T08:58:31.801Z",
  "networkType": "ethereum",
  "devdoc": {
    "kind": "dev",
    "methods": {},
    "version": 1
  },
  "userdoc": {
    "kind": "user",
    "methods": {},
    "version": 1
  }
}